{
  "_format": "hh-sol-artifact-1",
  "contractName": "MultiElection",
  "sourceName": "contracts/MultiElection.sol",
  "abi": [
    {
      "inputs": [],
      "stateMutability": "nonpayable",
      "type": "constructor"
    },
    {
      "anonymous": false,
      "inputs": [
        {
          "indexed": false,
          "internalType": "uint256",
          "name": "electionId",
          "type": "uint256"
        },
        {
          "indexed": false,
          "internalType": "string",
          "name": "title",
          "type": "string"
        },
        {
          "indexed": false,
          "internalType": "uint256",
          "name": "startTime",
          "type": "uint256"
        },
        {
          "indexed": false,
          "internalType": "uint256",
          "name": "endTime",
          "type": "uint256"
        }
      ],
      "name": "ElectionCreated",
      "type": "event"
    },
    {
      "anonymous": false,
      "inputs": [
        {
          "indexed": false,
          "internalType": "uint256",
          "name": "electionId",
          "type": "uint256"
        },
        {
          "indexed": false,
          "internalType": "uint256",
          "name": "candidateIndex",
          "type": "uint256"
        }
      ],
      "name": "Voted",
      "type": "event"
    },
    {
      "inputs": [
        {
          "internalType": "string",
          "name": "title",
          "type": "string"
        },
        {
          "internalType": "string[]",
          "name": "candidateNames",
          "type": "string[]"
        },
        {
          "internalType": "uint256",
          "name": "startTime",
          "type": "uint256"
        },
        {
          "internalType": "uint256",
          "name": "endTime",
          "type": "uint256"
        }
      ],
      "name": "createElection",
      "outputs": [],
      "stateMutability": "nonpayable",
      "type": "function"
    },
    {
      "inputs": [],
      "name": "electionCount",
      "outputs": [
        {
          "internalType": "uint256",
          "name": "",
          "type": "uint256"
        }
      ],
      "stateMutability": "view",
      "type": "function"
    },
    {
      "inputs": [
        {
          "internalType": "uint256",
          "name": "",
          "type": "uint256"
        }
      ],
      "name": "elections",
      "outputs": [
        {
          "internalType": "string",
          "name": "title",
          "type": "string"
        },
        {
          "internalType": "uint256",
          "name": "startTime",
          "type": "uint256"
        },
        {
          "internalType": "uint256",
          "name": "endTime",
          "type": "uint256"
        }
      ],
      "stateMutability": "view",
      "type": "function"
    },
    {
      "inputs": [
        {
          "internalType": "uint256",
          "name": "electionId",
          "type": "uint256"
        }
      ],
      "name": "getCandidates",
      "outputs": [
        {
          "components": [
            {
              "internalType": "string",
              "name": "name",
              "type": "string"
            },
            {
              "internalType": "uint256",
              "name": "voteCount",
              "type": "uint256"
            }
          ],
          "internalType": "struct MultiElection.Candidate[]",
          "name": "",
          "type": "tuple[]"
        }
      ],
      "stateMutability": "view",
      "type": "function"
    },
    {
      "inputs": [
        {
          "internalType": "uint256",
          "name": "electionId",
          "type": "uint256"
        }
      ],
      "name": "getElection",
      "outputs": [
        {
          "internalType": "string",
          "name": "title",
          "type": "string"
        },
        {
          "internalType": "uint256",
          "name": "startTime",
          "type": "uint256"
        },
        {
          "internalType": "uint256",
          "name": "endTime",
          "type": "uint256"
        },
        {
          "components": [
            {
              "internalType": "string",
              "name": "name",
              "type": "string"
            },
            {
              "internalType": "uint256",
              "name": "voteCount",
              "type": "uint256"
            }
          ],
          "internalType": "struct MultiElection.Candidate[]",
          "name": "candidates",
          "type": "tuple[]"
        }
      ],
      "stateMutability": "view",
      "type": "function"
    },
    {
      "inputs": [
        {
          "internalType": "uint256",
          "name": "electionId",
          "type": "uint256"
        }
      ],
      "name": "getWinner",
      "outputs": [
        {
          "internalType": "string",
          "name": "winnerName",
          "type": "string"
        },
        {
          "internalType": "uint256",
          "name": "winnerVotes",
          "type": "uint256"
        }
      ],
      "stateMutability": "view",
      "type": "function"
    },
    {
      "inputs": [
        {
          "internalType": "uint256",
          "name": "electionId",
          "type": "uint256"
        },
        {
          "internalType": "address",
          "name": "voter",
          "type": "address"
        }
      ],
      "name": "hasVoted",
      "outputs": [
        {
          "internalType": "bool",
          "name": "",
          "type": "bool"
        }
      ],
      "stateMutability": "view",
      "type": "function"
    },
    {
      "inputs": [],
      "name": "owner",
      "outputs": [
        {
          "internalType": "address",
          "name": "",
          "type": "address"
        }
      ],
      "stateMutability": "view",
      "type": "function"
    },
    {
      "inputs": [
        {
          "internalType": "uint256",
          "name": "electionId",
          "type": "uint256"
        },
        {
          "internalType": "uint256",
          "name": "candidateIndex",
          "type": "uint256"
        }
      ],
      "name": "vote",
      "outputs": [],
      "stateMutability": "nonpayable",
      "type": "function"
    }
  ],
  "bytecode": "0x608060405234801561001057600080fd5b5033600260006101000a81548173ffffffffffffffffffffffffffffffffffffffff021916908373ffffffffffffffffffffffffffffffffffffffff1602179055506118a4806100616000396000f3fe608060405234801561001057600080fd5b50600436106100935760003560e01c80635e6fef01116100665780635e6fef01146101455780638da5cb5b14610177578063997d2830146101955780639d710777146101b3578063b384abef146101e657610093565b80633e39a7a5146100985780634129b2c9146100c857806343859632146100f957806347b01f9914610129575b600080fd5b6100b260048036038101906100ad9190610f18565b610202565b6040516100bf919061121a565b60405180910390f35b6100e260048036038101906100dd9190610f18565b610312565b6040516100f0929190611257565b60405180910390f35b610113600480360381019061010e9190610f41565b610527565b604051610120919061123c565b60405180910390f35b610143600480360381019061013e9190610e85565b610596565b005b61015f600480360381019061015a9190610f18565b610819565b60405161016e93929190611287565b60405180910390f35b61017f6108cb565b60405161018c91906111ff565b60405180910390f35b61019d6108f1565b6040516101aa91906113d8565b60405180910390f35b6101cd60048036038101906101c89190610f18565b6108f7565b6040516101dd94939291906112c5565b60405180910390f35b61020060048036038101906101fb9190610f7d565b610ab7565b005b6060600080838152602001908152602001600020600301805480602002602001604051908101604052809291908181526020016000905b82821015610307578382906000526020600020906002020160405180604001604052908160008201805461026c906115da565b80601f0160208091040260200160405190810160405280929190818152602001828054610298906115da565b80156102e55780601f106102ba576101008083540402835291602001916102e5565b820191906000526020600020905b8154815290600101906020018083116102c857829003601f168201915b5050505050815260200160018201548152505081526020019060010190610239565b505050509050919050565b6060600080600080858152602001908152602001600020905080600201544211610371576040517f08c379a000000000000000000000000000000000000000000000000000000000815260040161036890611398565b60405180910390fd5b6000606060005b836003018054905081101561051857828460030182815481106103c4577f4e487b7100000000000000000000000000000000000000000000000000000000600052603260045260246000fd5b906000526020600020906002020160010154111561050557836003018181548110610418577f4e487b7100000000000000000000000000000000000000000000000000000000600052603260045260246000fd5b9060005260206000209060020201600101549250836003018181548110610468577f4e487b7100000000000000000000000000000000000000000000000000000000600052603260045260246000fd5b90600052602060002090600202016000018054610484906115da565b80601f01602080910402602001604051908101604052809291908181526020018280546104b0906115da565b80156104fd5780601f106104d2576101008083540402835291602001916104fd565b820191906000526020600020905b8154815290600101906020018083116104e057829003601f168201915b505050505091505b80806105109061163d565b915050610378565b50808294509450505050915091565b60008060008085815260200190815260200160002090508060040160008473ffffffffffffffffffffffffffffffffffffffff1673ffffffffffffffffffffffffffffffffffffffff16815260200190815260200160002060009054906101000a900460ff1691505092915050565b600260009054906101000a900473ffffffffffffffffffffffffffffffffffffffff1673ffffffffffffffffffffffffffffffffffffffff163373ffffffffffffffffffffffffffffffffffffffff1614610626576040517f08c379a000000000000000000000000000000000000000000000000000000000815260040161061d90611338565b60405180910390fd5b808210610668576040517f08c379a000000000000000000000000000000000000000000000000000000000815260040161065f90611318565b60405180910390fd5b60008351116106ac576040517f08c379a00000000000000000000000000000000000000000000000000000000081526004016106a390611378565b60405180910390fd5b600080600060015481526020019081526020016000209050848160000190805190602001906106dc929190610ca0565b5082816001018190555081816002018190555060005b84518110156107ba57816003016040518060400160405280878481518110610743577f4e487b7100000000000000000000000000000000000000000000000000000000600052603260045260246000fd5b6020026020010151815260200160008152509080600181540180825580915050600190039060005260206000209060020201600090919091909150600082015181600001908051906020019061079a929190610ca0565b5060208201518160010155505080806107b29061163d565b9150506106f2565b507fe7a0aae5d733e07e246dea86213a1ac1b0aa8554bde889bb75c12752f44e53d96001548685856040516107f294939291906113f3565b60405180910390a16001600081548092919061080d9061163d565b91905055505050505050565b600060205280600052604060002060009150905080600001805461083c906115da565b80601f0160208091040260200160405190810160405280929190818152602001828054610868906115da565b80156108b55780601f1061088a576101008083540402835291602001916108b5565b820191906000526020600020905b81548152906001019060200180831161089857829003601f168201915b5050505050908060010154908060020154905083565b600260009054906101000a900473ffffffffffffffffffffffffffffffffffffffff1681565b60015481565b6060600080606060008060008781526020019081526020016000209050806000018160010154826002015483600301838054610932906115da565b80601f016020809104026020016040519081016040528092919081815260200182805461095e906115da565b80156109ab5780601f10610980576101008083540402835291602001916109ab565b820191906000526020600020905b81548152906001019060200180831161098e57829003601f168201915b5050505050935080805480602002602001604051908101604052809291908181526020016000905b82821015610aa15783829060005260206000209060020201604051806040016040529081600082018054610a06906115da565b80601f0160208091040260200160405190810160405280929190818152602001828054610a32906115da565b8015610a7f5780601f10610a5457610100808354040283529160200191610a7f565b820191906000526020600020905b815481529060010190602001808311610a6257829003601f168201915b50505050508152602001600182015481525050815260200190600101906109d3565b5050505090509450945094509450509193509193565b600080600084815260200190815260200160002090508060040160003373ffffffffffffffffffffffffffffffffffffffff1673ffffffffffffffffffffffffffffffffffffffff16815260200190815260200160002060009054906101000a900460ff1615610b5c576040517f08c379a0000000000000000000000000000000000000000000000000000000008152600401610b53906113b8565b60405180910390fd5b80600301805490508210610ba5576040517f08c379a0000000000000000000000000000000000000000000000000000000008152600401610b9c90611358565b60405180910390fd5b806003018281548110610be1577f4e487b7100000000000000000000000000000000000000000000000000000000600052603260045260246000fd5b90600052602060002090600202016001016000815480929190610c039061163d565b919050555060018160040160003373ffffffffffffffffffffffffffffffffffffffff1673ffffffffffffffffffffffffffffffffffffffff16815260200190815260200160002060006101000a81548160ff0219169083151502179055507f84a5508ca0d85b42a876e75a9126f3ae7b43617ce60b170bf8805d34630bc6548383604051610c9392919061143f565b60405180910390a1505050565b828054610cac906115da565b90600052602060002090601f016020900481019282610cce5760008555610d15565b82601f10610ce757805160ff1916838001178555610d15565b82800160010185558215610d15579182015b82811115610d14578251825591602001919060010190610cf9565b5b509050610d229190610d26565b5090565b5b80821115610d3f576000816000905550600101610d27565b5090565b6000610d56610d518461148d565b611468565b90508083825260208201905082856020860282011115610d7557600080fd5b60005b85811015610dbf57813567ffffffffffffffff811115610d9757600080fd5b808601610da48982610e46565b85526020850194506020840193505050600181019050610d78565b5050509392505050565b6000610ddc610dd7846114b9565b611468565b905082815260208101848484011115610df457600080fd5b610dff848285611598565b509392505050565b600081359050610e1681611840565b92915050565b600082601f830112610e2d57600080fd5b8135610e3d848260208601610d43565b91505092915050565b600082601f830112610e5757600080fd5b8135610e67848260208601610dc9565b91505092915050565b600081359050610e7f81611857565b92915050565b60008060008060808587031215610e9b57600080fd5b600085013567ffffffffffffffff811115610eb557600080fd5b610ec187828801610e46565b945050602085013567ffffffffffffffff811115610ede57600080fd5b610eea87828801610e1c565b9350506040610efb87828801610e70565b9250506060610f0c87828801610e70565b91505092959194509250565b600060208284031215610f2a57600080fd5b6000610f3884828501610e70565b91505092915050565b60008060408385031215610f5457600080fd5b6000610f6285828601610e70565b9250506020610f7385828601610e07565b9150509250929050565b60008060408385031215610f9057600080fd5b6000610f9e85828601610e70565b9250506020610faf85828601610e70565b9150509250929050565b6000610fc583836111a4565b905092915050565b610fd681611550565b82525050565b6000610fe7826114fa565b610ff1818561151d565b935083602082028501611003856114ea565b8060005b8581101561103f57848403895281516110208582610fb9565b945061102b83611510565b925060208a01995050600181019050611007565b50829750879550505050505092915050565b61105a81611562565b82525050565b600061106b82611505565b611075818561152e565b93506110858185602086016115a7565b61108e81611713565b840191505092915050565b60006110a482611505565b6110ae818561153f565b93506110be8185602086016115a7565b6110c781611713565b840191505092915050565b60006110df60228361153f565b91506110ea82611724565b604082019050919050565b600061110260158361153f565b915061110d82611773565b602082019050919050565b600061112560178361153f565b91506111308261179c565b602082019050919050565b600061114860138361153f565b9150611153826117c5565b602082019050919050565b600061116b60198361153f565b9150611176826117ee565b602082019050919050565b600061118e60168361153f565b915061119982611817565b602082019050919050565b600060408301600083015184820360008601526111c18282611060565b91505060208301516111d660208601826111e1565b508091505092915050565b6111ea8161158e565b82525050565b6111f98161158e565b82525050565b60006020820190506112146000830184610fcd565b92915050565b600060208201905081810360008301526112348184610fdc565b905092915050565b60006020820190506112516000830184611051565b92915050565b600060408201905081810360008301526112718185611099565b905061128060208301846111f0565b9392505050565b600060608201905081810360008301526112a18186611099565b90506112b060208301856111f0565b6112bd60408301846111f0565b949350505050565b600060808201905081810360008301526112df8187611099565b90506112ee60208301866111f0565b6112fb60408301856111f0565b818103606083015261130d8184610fdc565b905095945050505050565b60006020820190508181036000830152611331816110d2565b9050919050565b60006020820190508181036000830152611351816110f5565b9050919050565b6000602082019050818103600083015261137181611118565b9050919050565b600060208201905081810360008301526113918161113b565b9050919050565b600060208201905081810360008301526113b18161115e565b9050919050565b600060208201905081810360008301526113d181611181565b9050919050565b60006020820190506113ed60008301846111f0565b92915050565b600060808201905061140860008301876111f0565b818103602083015261141a8186611099565b905061142960408301856111f0565b61143660608301846111f0565b95945050505050565b600060408201905061145460008301856111f0565b61146160208301846111f0565b9392505050565b6000611472611483565b905061147e828261160c565b919050565b6000604051905090565b600067ffffffffffffffff8211156114a8576114a76116e4565b5b602082029050602081019050919050565b600067ffffffffffffffff8211156114d4576114d36116e4565b5b6114dd82611713565b9050602081019050919050565b6000819050602082019050919050565b600081519050919050565b600081519050919050565b6000602082019050919050565b600082825260208201905092915050565b600082825260208201905092915050565b600082825260208201905092915050565b600061155b8261156e565b9050919050565b60008115159050919050565b600073ffffffffffffffffffffffffffffffffffffffff82169050919050565b6000819050919050565b82818337600083830152505050565b60005b838110156115c55780820151818401526020810190506115aa565b838111156115d4576000848401525b50505050565b600060028204905060018216806115f257607f821691505b60208210811415611606576116056116b5565b5b50919050565b61161582611713565b810181811067ffffffffffffffff82111715611634576116336116e4565b5b80604052505050565b60006116488261158e565b91507fffffffffffffffffffffffffffffffffffffffffffffffffffffffffffffffff82141561167b5761167a611686565b5b600182019050919050565b7f4e487b7100000000000000000000000000000000000000000000000000000000600052601160045260246000fd5b7f4e487b7100000000000000000000000000000000000000000000000000000000600052602260045260246000fd5b7f4e487b7100000000000000000000000000000000000000000000000000000000600052604160045260246000fd5b6000601f19601f8301169050919050565b7f53746172742074696d65206d757374206265206265666f726520656e6420746960008201527f6d65000000000000000000000000000000000000000000000000000000000000602082015250565b7f596f7520617265206e6f7420746865206f776e65720000000000000000000000600082015250565b7f496e76616c69642063616e64696461746520696e646578000000000000000000600082015250565b7f43616e6469646174657320726571756972656400000000000000000000000000600082015250565b7f456c656374696f6e206973207374696c6c206f6e676f696e6700000000000000600082015250565b7f596f75206861766520616c726561647920766f74656400000000000000000000600082015250565b61184981611550565b811461185457600080fd5b50565b6118608161158e565b811461186b57600080fd5b5056fea264697066735822122086ab2f07c96fd9a668c0b3219b6c43b22b6e0cc2b04ce396c8cd0b2976eab23064736f6c63430008040033",
  "linkReferences": {},
  "deployedLinkReferences": {}
}